{
  "transactions": [
    {
      "hash": "0x2073341043272a83f82a965b18ea75f7c26c67fc7ee6701cd547dbb39c8c6bc2",
      "transactionType": "CREATE",
      "contractName": "TestMint",
      "contractAddress": "0x87e0D90cDaF7C35ebd82D834518F02193fE008D5",
      "function": null,
      "arguments": [
        "0x07dF725eEa755E35aC85281eFDC884c33969e23f"
      ],
      "transaction": {
        "type": "0x02",
        "from": "0x20cd8eb93c50bdac35d6a526f499c0104958e3f6",
        "gas": "0x4dcce",
        "value": "0x0",
        "data": "0x608060405234801561001057600080fd5b506040516103a03803806103a083398101604081905261002f91610054565b600080546001600160a01b0319166001600160a01b0392909216919091179055610084565b60006020828403121561006657600080fd5b81516001600160a01b038116811461007d57600080fd5b9392505050565b61030d806100936000396000f3fe608060405234801561001057600080fd5b506004361061002b5760003560e01c8063c28ab89014610030575b600080fd5b61004361003e3660046101ff565b610045565b005b8281146100b2576040517f08c379a000000000000000000000000000000000000000000000000000000000815260206004820152600f60248201527f6c656e677468206d69736d617463680000000000000000000000000000000000604482015260640160405180910390fd5b60005b838110156101ac5760005473ffffffffffffffffffffffffffffffffffffffff166340c10f198686848181106100ed576100ed61026b565b9050602002016020810190610102919061029a565b8585858181106101145761011461026b565b6040517fffffffff0000000000000000000000000000000000000000000000000000000060e087901b16815273ffffffffffffffffffffffffffffffffffffffff90941660048501526020029190910135602483015250604401600060405180830381600087803b15801561018857600080fd5b505af115801561019c573d6000803e3d6000fd5b5050600190920191506100b59050565b5050505050565b60008083601f8401126101c557600080fd5b50813567ffffffffffffffff8111156101dd57600080fd5b6020830191508360208260051b85010111156101f857600080fd5b9250929050565b6000806000806040858703121561021557600080fd5b843567ffffffffffffffff8082111561022d57600080fd5b610239888389016101b3565b9096509450602087013591508082111561025257600080fd5b5061025f878288016101b3565b95989497509550505050565b7f4e487b7100000000000000000000000000000000000000000000000000000000600052603260045260246000fd5b6000602082840312156102ac57600080fd5b813573ffffffffffffffffffffffffffffffffffffffff811681146102d057600080fd5b939250505056fea2646970667358221220c799228798b2faf3725077d6d58ae9b3f9c7596b247b2c4200bc3bf7b338944364736f6c6343000810003300000000000000000000000007df725eea755e35ac85281efdc884c33969e23f",
        "nonce": "0x26",
        "accessList": []
      },
      "additionalContracts": []
    },
    {
      "hash": "0x5100582f2cd5ca7bb5c627500cd46c08d22b0940b28fec126ec92fd5c40b20b7",
      "transactionType": "CALL",
      "contractName": "TestMint",
      "contractAddress": "0x87e0D90cDaF7C35ebd82D834518F02193fE008D5",
      "function": "mints(address[],uint256[])",
      "arguments": [
        "[0x7E5F4552091A69125d5DfCb7b8C2659029395Bdf, 0x2B5AD5c4795c026514f8317c7a215E218DcCD6cF, 0x6813Eb9362372EEF6200f3b1dbC3f819671cBA69, 0x1efF47bc3a10a45D4B230B5d10E37751FE6AA718, 0xe1AB8145F7E55DC933d51a18c793F901A3A0b276, 0xE57bFE9F44b819898F47BF37E5AF72a0783e1141, 0xd41c057fd1c78805AAC12B0A94a405c0461A6FBb, 0xF1F6619B38A98d6De0800F1DefC0a6399eB6d30C, 0xF7Edc8FA1eCc32967F827C9043FcAe6ba73afA5c, 0x4CCeBa2d7D2B4fdcE4304d3e09a1fea9fbEb1528]",
        "[1, 2, 3, 4, 5, 6, 7, 8, 9, 10]"
      ],
      "transaction": {
        "type": "0x02",
        "from": "0x20cd8eb93c50bdac35d6a526f499c0104958e3f6",
        "to": "0x87e0d90cdaf7c35ebd82d834518f02193fe008d5",
        "gas": "0x62b03",
        "value": "0x0",
        "data": "0xc28ab890000000000000000000000000000000000000000000000000000000000000004000000000000000000000000000000000000000000000000000000000000001a0000000000000000000000000000000000000000000000000000000000000000a0000000000000000000000007e5f4552091a69125d5dfcb7b8c2659029395bdf0000000000000000000000002b5ad5c4795c026514f8317c7a215e218dccd6cf0000000000000000000000006813eb9362372eef6200f3b1dbc3f819671cba690000000000000000000000001eff47bc3a10a45d4b230b5d10e37751fe6aa718000000000000000000000000e1ab8145f7e55dc933d51a18c793f901a3a0b276000000000000000000000000e57bfe9f44b819898f47bf37e5af72a0783e1141000000000000000000000000d41c057fd1c78805aac12b0a94a405c0461a6fbb000000000000000000000000f1f6619b38a98d6de0800f1defc0a6399eb6d30c000000000000000000000000f7edc8fa1ecc32967f827c9043fcae6ba73afa5c0000000000000000000000004cceba2d7d2b4fdce4304d3e09a1fea9fbeb1528000000000000000000000000000000000000000000000000000000000000000a000000000000000000000000000000000000000000000000000000000000000100000000000000000000000000000000000000000000000000000000000000020000000000000000000000000000000000000000000000000000000000000003000000000000000000000000000000000000000000000000000000000000000400000000000000000000000000000000000000000000000000000000000000050000000000000000000000000000000000000000000000000000000000000006000000000000000000000000000000000000000000000000000000000000000700000000000000000000000000000000000000000000000000000000000000080000000000000000000000000000000000000000000000000000000000000009000000000000000000000000000000000000000000000000000000000000000a",
        "nonce": "0x27",
        "accessList": []
      },
      "additionalContracts": []
    }
  ],
  "receipts": [],
  "libraries": [],
  "pending": [
    "0x2073341043272a83f82a965b18ea75f7c26c67fc7ee6701cd547dbb39c8c6bc2",
    "0x5100582f2cd5ca7bb5c627500cd46c08d22b0940b28fec126ec92fd5c40b20b7"
  ],
  "path": "/Users/jinmingzhi/go-www/src/github.com/Ankr-Shanghai/test-mint/broadcast/TestMint-Batch.s.sol/5201/run-latest.json",
  "returns": {},
  "timestamp": 1684915598,
  "commit": "15f474b"
}